S01000006D69647465726D322E73726563F0
S11300000C945A000C9424030C9442030C94C102E3
S11300100C9477000C9477000C9477000C94E50210
S11300200C9477000C9477000C9483030C94770061
S11300300C9477000C9477000C9477000C94770060
S11300400C94DA030C9477000C9477000C94070456
S11300500C94C5030C94EF030C9477000C94770074
S11300600C9477000C9477000C9477000C94770030
S11300700C9477000C9477000C9477000C94770020
S11300800C9477000C94A6030C9477000C947700DE
S11300900C9477000C9477000C9477000C94770000
S11300A00C9477000C9460030C9477000C94770004
S11300B00C94770011241FBECFEFD8E0DEBFCDBF74
S11300C011E0A0E0B1E0E6E5F0E102C005900D9298
S11300D0A434B107D9F721E0A4E4B1E001C01D9232
S11300E0A037B207E1F70E9427020C9429080C9468
S11300F0000095B180E1892785B995B180E289270F
S113010085B9089592E09093B0008093B300299844
S113011081E08093680090936B0008951092B20080
S113012082E08093700085E08093B1000895E0E759
S1130130F0E080818D7F8083E1EBF0E080818A7F35
S1130140808308950F93ECE7F0E0908130E4639F9F
S1130150B0011124892B682B80E2489FA00111244F
S1130160462B4083EAE7F0E080812295220F207E2F
S11301708768282B2083EBE7F0E08081082B00833D
S11301800F9108951092C50094E09093C400E1EC9F
S1130190F0E0908190699083440F440F440F220F44
S11301A0422B20E1629FB0011124642B20E4829F42
S11301B0C0011124682B6093C2000895CF93DF938C
S11301C09F938F937F936F9380E091E09F938F939E
S11301D01F9284E18F93C6E4D1E0DF93CF930E9412
S11301E03105D0936701C09366018DB79EB70A9617
S11301F00FB6F8949EBF0FBE8DBFDF91CF910895C7
S113020081E090E090935B0180935A01E1ECF0E08F
S113021080818866808380915A0190915B01892B4B
S1130220D1F708951092900088E08093910089E6B8
S113023098E1909399008093980008954B9BFECF8A
S11302404A9BFCCF4B99FECF4A99FCCF85E0809323
S1130250690083E08DBB81E090E090935D01809321
S11302605C0190935F0180935E0180E280936F0054
S11302708093720082E08093710010929500109236
S1130280940010928500109284001092A5001092A0
S1130290A40087E4809381008093A10084E080938C
S11302A0910080915E0190915F01892BD1F780913B
S11302B05C0190915D01892BA1F71DBA1092690030
S11302C070982898E1E9F0E08081887F8083E1E8F4
S11302D0F0E08081887B8083E1EAF0E08081887BA4
S11302E0808360916A0170916B01809160019091AB
S11302F06101680F791F80E090E00E94360420E0DD
S113030030E040E25EE30E94730408954A9BFECF0E
S11303104A99FECF81E0809369008DBB81E090E033
S113032090935D0180935C0180E28093720082E08F
S11303308093710010929500109294001092A50081
S11303401092A40087E48093A10084E0809391003C
S113035080915C0190915D01892BD1F71DBA1092B7
S1130360690070982898E1E9F0E08081887F8083B3
S1130370E1EAF0E08081887B808360916001709184
S1130380610180E090E00E94360420E030E040EA21
S11303905EE30E94730408954A9BFECF4A99FECF00
S11303A081E090E090935D0180935C011092950050
S11303B0109294001092A5001092A400E2E7F0E0DD
S11303C0808180628083E1E7F0E0808182608083C5
S11303D0E1EAF0E0808187648083E1E9F0E08081F4
S11303E08460808380915C0190915D01892BD1F7B9
S11303F070982898E1E9F0E08081887F8083E1EAC1
S1130400F0E08081887F8083609160017091610158
S113041080E090E00E94360420E030E040E25FE3B8
S11304200E947304089584B5806884BD84B5816096
S113043084BD85B585BDEEE6F0E080818160808372
S1130440089516BC17BC85B5826085BD089584B136
S1130450806384B92D9A2C9852985A9853985B9833
S1130460689A7098209A289869985598569A23E023
S113047040E060E080E00E94C2000E9413020E94FB
S1130480120186EE90E00E9482000E94210204E0A4
S113049021E041E063E080E00E94A2007894C9E793
S11304A0D0E00F2EF5E3AF2EF1E0BF2EF02D0F2E8E
S11304B0FAE3CF2EF1E0DF2EF02D0F2EFFE3EF2E27
S11304C0F1E0FF2EF02D05E011E00F2EF5E18F2E67
S11304D0F1E09F2EF02D0F2EF5E26F2EF1E07F2E2E
S11304E0F02D8091680190916901892B31F010926F
S11304F06901109268010E9479008881853098F41E
S113050010936701009366010E94000190926701B5
S1130510809266010E9400017092670160926601F8
S11305200E94000124C0B0926701A09266010E945B
S113053000010E94CC010E94DE000E940001D092C2
S11305406701C09266010E9400010E9486010E9418
S1130550DE000E940001F0926701E09266010E94B1
S113056000010E941E010E94DE000E9400012FEF84
S11305708DE399E4215080409040E1F700C00000F1
S1130580B0CF1F920F920FB60F9211242F933F9367
S11305904F935F936F937F938F939F93AF93BF9387
S11305A0EF93FF930E948E00FF91EF91BF91AF9163
S11305B09F918F917F916F915F914F913F912F9177
S11305C00F900FBE0F901F9018951F920F920FB6A9
S11305D00F9211242F933F934F935F936F937F93C5
S11305E08F939F93AF93BF93EF93FF9380914401B5
S11305F09091450101969093450180934401809127
S1130600440190914501029771F4199B06C081E061
S113061090E090936901809368010E949700109282
S1130620450110924401FF91EF91BF91AF919F91C9
S11306308F917F916F915F914F913F912F910F9087
S11306400FBE0F901F9018951F920F920FB60F9226
S113065011248F939F93EF93FF9380915C0190916A
S11306605D01892B31F0E1EAF0E0908181E0892796
S11306708083FF91EF919F918F910F900FBE0F9008
S11306801F9018951F920F920FB60F9211248F93FB
S11306909F93EF93FF9380915E0190915F01892B6B
S11306A031F0E1E8F0E0908181E089278083FF91D7
S11306B0EF919F918F910F900FBE0F901F901895FF
S11306C01F920F920FB60F9211248F939F93EF9363
S11306D0FF93E2E7F0E080818F7D80838091A60024
S11306E09091A700909361018093600110925D0145
S11306F010925C01FF91EF919F918F910F900FBE2B
S11307000F901F9018951F920F920FB60F921124FD
S11307108F939F93EF93FF93EFE6F0E080818F7DBB
S11307208083809186009091870090936B018093E1
S11307306A0110925F0110925E01FF91EF919F9107
S11307408F910F900FBE0F901F9018951F920F92CC
S11307500FB60F9211248F939F93EF93FF93709A88
S113076080915E0190915F01892B09F0289AE1E75D
S1130770F0E080818D7F8083FF91EF919F918F9135
S11307800F900FBE0F901F9018951F920F920FB6E7
S11307900F9211248F93EF93FF93E1ECF0E08081AB
S11307A0877B8083FF91EF918F910F900FBE0F9005
S11307B01F9018951F920F920FB60F9211248F93CA
S11307C0EF93FF93EAE7F0E0808188608083FF91F4
S11307D0EF918F910F900FBE0F901F9018951F925D
S11307E00F920FB60F9211248F93EF93FF93EAE7C2
S11307F0F0E08081877F80838091790087BDFF91BD
S1130800EF918F910F900FBE0F901F9018951F922C
S11308100F920FB60F9211248F939F93EF93FF9330
S1130820E0916601F09167018081882369F08081FD
S11308308093C60080916601909167010196909320
S113084067018093660109C0E1ECF0E080818F7D4F
S1130850808310925B0110925A01FF91EF919F9156
S11308608F910F900FBE0F901F901895E89409C0B8
S113087097FB3EF490958095709561957F4F8F4FCF
S11308809F4F9923A9F0F92F96E9BB279395F695E5
S1130890879577956795B795F111F8CFFAF4BB0F63
S11308A011F460FF1BC06F5F7F4F8F4F9F4F16C0C7
S11308B0882311F096E911C0772321F09EE8872F51
S11308C0762F05C0662371F096E8862F70E060E00D
S11308D02AF09A95660F771F881FDAF7880F969586
S11308E0879597F908950E9486040C94F7040E9452
S11308F0E90438F00E94F00420F0952311F00C94E0
S1130900E0040C94E60411240C942B050E940805C1
S113091070F3959FC1F3950F50E0551F629FF0014E
S1130920729FBB27F00DB11D639FAA27F00DB11D67
S1130930AA1F649F6627B00DA11D661F829F2227F0
S1130940B00DA11D621F739FB00DA11D621F839F77
S1130950A00D611D221F749F3327A00D611D231F4D
S1130960849F600D211D822F762F6A2F11249F579B
S113097050409AF0F1F088234AF0EE0FFF1FBB1F9E
S1130980661F771F881F91505040A9F79E3F51055D
S113099080F00C94E0040C942B055F3FE4F3983E44
S11309A0D4F3869577956795B795F795E7959F5F07
S11309B0C1F7FE2B880F911D9695879597F9089599
S11309C097F99F6780E870E060E008959FEF80ECFE
S11309D0089500240A9416161706180609060895A1
S11309E000240A9412161306140605060895092E07
S11309F00394000C11F4882352F0BB0F40F4BF2B76
S1130A0011F460FF04C06F5F7F4F8F4F9F4F0895B5
S1130A1057FD9058440F551F59F05F3F71F04795AB
S1130A20880F97FB991F61F09F3F79F08795089590
S1130A30121613061406551FF2CF4695F1DF08C0AF
S1130A40161617061806991FF1CF869571056105CC
S1130A5008940895E894BB2766277727CB0197F974
S1130A600895AEE0B0E0E7E3F5E00C9400080D89EA
S1130A701E898F89988D26E02C831A83098397FF1A
S1130A8002C080E090E801979E838D83AE01455EAD
S1130A905F4F698D7A8DCE0101960E9461054D816B
S1130AA05E8157FD0AC02F813885421753070CF425
S1130AB09A01F801E20FF31F10822E96E4E00C94E1
S1130AC01C08ABE0B0E0E7E6F5E00C94F2076C013B
S1130AD07B018A01FC0117821682838181FFCCC1CC
S1130AE0CE0101963C01F6019381F70193FD8591B6
S1130AF093FF81917F01882309F4BAC1853239F4C7
S1130B0093FD859193FF81917F01853229F4B6018C
S1130B1090E00E945807E7CF912C212C312CFFE163
S1130B20F315D8F08B3279F038F4803279F08332CF
S1130B30A1F4232D20611DC08D3261F0803369F44E
S1130B40232D216016C0832D8260382EE32DE460AE
S1130B503E2E2AC0F32DF8601DC037FC2DC020EDB9
S1130B60280F2A3040F08E32B9F436FC81C1232D8F
S1130B702064322E19C036FE06C08AE0989E200DED
S1130B801124922E11C0EAE02E9E200D1124222E53
S1130B90F32DF0623F2E08C08C3621F4832D80683B
S1130BA0382E02C0883641F4F70193FD859193FFF6
S1130BB081917F018111B3CF982F9F7D95549330FC
S1130BC028F40C5F1F4F9FE399830DC0833631F0E7
S1130BD0833771F0833509F059C021C0F801808151
S1130BE089830E5F1F4F88248394912C530113C073
S1130BF02801F2E04F0E511CF801A080B18036FEAE
S1130C0003C0692D70E002C06FEF7FEFC5010E9441
S1130C104D074C018201F32DFF773F2E16C02801AA
S1130C2022E0420E511CF801A080B18036FE03C0C0
S1130C30692D70E002C06FEF7FEFC5010E9442078B
S1130C404C01F32DF0683F2E820133FC1BC0822D32
S1130C5090E088169906B0F4B60180E290E00E9414
S1130C6058072A94F4CFF50137FC859137FE81911A
S1130C705F01B60190E00E94580721102A9421E0F8
S1130C80821A91088114910471F7E8C0843611F036
S1130C90893641F5F80137FE07C060817181828190
S1130CA093810C5F1F4F08C060817181072E000C77
S1130CB0880B990B0E5F1F4FF32DFF763F2E97FF86
S1130CC009C090958095709561957F4F8F4F9F4F88
S1130CD0F0683F2E2AE030E0A3010E949407882E9A
S1130CE0861845C0853731F4232D2F7EB22E2AE095
S1130CF030E025C0932D997FB92E8F36C1F018F4BA
S1130D00883579F0B5C0803719F0883721F0B0C044
S1130D10E92FE061BE2EB4FE0DC0FB2DF460BF2EA2
S1130D2009C034FE0AC0292F2660B22E06C028E06E
S1130D3030E005C020E130E002C020E132E0F801FB
S1130D40B7FE07C060817181828193810C5F1F4F60
S1130D5006C06081718180E090E00E5F1F4FA301A7
S1130D600E949407882E8618FB2DFF773F2E36FEAF
S1130D700DC0232D2E7FA22E891458F434FE0BC0EF
S1130D8032FC09C0832D8E7EA82E05C0B82CA32C5E
S1130D9003C0B82C01C0B92CA4FE0FC0FE01E80D9D
S1130DA0F11D8081803321F49A2D997EA92E09C0EA
S1130DB0A2FE06C0B394B39404C08A2D867809F0C9
S1130DC0B394A3FC11C0A0FE06C0B21488F4280C8E
S1130DD0922C9B180EC0B21460F4B60180E290E02D
S1130DE00E945807B394F7CFB21418F42B1802C01A
S1130DF0982C212CA4FE10C0B60180E390E00E9440
S1130E005807A2FE17C0A1FC03C088E790E002C007
S1130E1088E590E0B6010CC08A2D867859F0A1FED1
S1130E2002C08BE201C080E2A7FC8DE2B60190E033
S1130E300E945807891438F4B60180E390E00E94B8
S1130E4058079A94F7CF8A94F301E80DF11D808135
S1130E50B60190E00E9458078110F5CF222009F4D2
S1130E6042CEB60180E290E00E9458072A94F6CF61
S1130E70F6018681978102C08FEF9FEF2B96E2E106
S1130E800C940E08FC010590615070400110D8F7D5
S1130E90809590958E0F9F1F0895FC0161507040BE
S1130EA001900110D8F7809590958E0F9F1F08959B
S1130EB00F931F93CF93DF93FB01238121FD03C085
S1130EC08FEF9FEF2CC022FF16C0468157812481EB
S1130ED035814217530744F4A081B1819D012F5FEE
S1130EE03F4F318320838C93268137812F5F3F4F7F
S1130EF03783268314C08B01EC01FB010084F18548
S1130F00E02D0995892BE1F6D80116968D919C91D7
S1130F101797019617969C938E931697CE01DF919F
S1130F20CF911F910F910895FA01AA27283051F10A
S1130F30203181F1E8946F936E7F6E5F7F4F8F4F06
S1130F409F4FAF4FB1E03ED0B4E03CD0670F781F65
S1130F50891F9A1FA11D680F791F8A1F911DA11D4A
S1130F606A0F711D811D911DA11D20D009F4689483
S1130F703F912AE0269F11243019305D3193DEF62B
S1130F80CF010895462F4770405D4193B3E00FD0E1
S1130F90C9F7F6CF462F4F70405D4A3318F0495DCC
S1130FA031FD4052419302D0A9F7EACFB4E0A695AF
S1130FB09795879577956795BA95C9F700976105D1
S1130FC0710508959B01AC010A2E06945795479527
S1130FD037952795BA95C9F7620F731F841F951F1C
S1130FE0A01D08952F923F924F925F926F927F922D
S1130FF08F929F92AF92BF92CF92DF92EF92FF9225
S11310000F931F93CF93DF93CDB7DEB7CA1BDB0BD0
S11310100FB6F894DEBF0FBECDBF09942A88398875
S113102048885F846E847D848C849B84AA84B9847C
S1131030C884DF80EE80FD800C811B81AA81B98188
S1131040CE0FD11D0FB6F894DEBF0FBECDBFED019C
S10910500895F894FFCF9F
S113105625660A0D0078313A20302E303030303093
S113106630200D0A0078323A20302E3030303030BD
S113107630200D0A0078343A20302E3030303030AB
S113108630200D0A0078313A200078323A20007870
S1071096343A2000C4
S9030000FC
