S00B00003263342E7372656350
S11300000C945A000C9464000C9464000C946400E6
S11300100C9464000C9464000C9464000C946400CC
S11300200C9464000C9464000C9464000C946400BC
S11300300C9464000C9464000C9464000C946400AC
S11300400C9474000C9464000C9464000C9464008C
S11300500C9464000C9464000C9464000C9464008C
S11300600C9464000C9464000C9464000C9464007C
S11300700C9464000C9464000C9464000C9464006C
S11300800C9464000C9464000C9464000C9464005C
S11300900C9464000C9464000C9464000C9464004C
S11300A00C9464000C9464000C9464000C9464003C
S11300B00C94640011241FBECFEFD8E0DEBFCDBF87
S11300C00E9466000C948F000C940000259A2D9ACF
S11300D0399888B1827088B914BC85E085BD81E007
S11300E080936E007894FFCF1F920F920FB60F92F9
S11300F0112416BC90E210C085B1892785B92BE77D
S113010030E086B58F3FE9F716BC21503109C9F7B5
S113011085B1892785B916BC3199FECFEDCFF89406
S1050120FFCF0B
S9030000FC
