:100000000C945A000C9464000C9464000C946400EA
:100010000C9464000C9464000C9464000C946400D0
:100020000C9464000C9464000C9464000C946400C0
:100030000C9464000C9464000C9464000C946400B0
:100040000C946F000C9464000C9464000C94640095
:100050000C9464000C9464000C9464000C94640090
:100060000C9464000C9464000C9464000C94640080
:100070000C9464000C9464000C9464000C94640070
:100080000C9464000C9464000C9464000C94640060
:100090000C9464000C9464000C9464000C94640050
:1000A0000C9464000C9464000C9464000C94640040
:1000B0000C94640011241FBECFEFD8E0DEBFCDBF8B
:1000C0000E9466000C9497000C940000239A14BCC4
:1000D00085E085BD81E080936E007894FFCF1F920C
:1000E0000F920FB60F9211242F933F938F9316BC4C
:1000F00016BC29E130E086B58F3FE9F716BC2150E8
:100100003109C9F72B9816BC25E130E086B58F3F41
:10011000E9F716BC21503109C9F72B9A16BC8F910B
:100120003F912F910F900FBE0F901F901895F8944C
:02013000FFCFFF
:00000001FF
