S01000006D69647465726D312E73726563F1
S11300000C945A000C946F000C946F000C946F00C5
S11300100C946F000C946F000C946F000C946F00A0
S11300200C946F000C946F000C946F000C945A01A4
S11300300C946F000C946F000C946F000C946F0080
S11300400C946F000C946F000C946F000C946F0070
S11300500C946F000C946F000C946F000C946F0060
S11300600C946F000C946F000C946F000C946F0050
S11300700C946F000C946F000C946F000C946F0040
S11300800C946F000C946F000C946F000C946F0030
S11300900C946F000C946F000C946F000C946F0020
S11300A00C946F000C946F000C946F000C946F0010
S11300B00C946F0011241FBECFEFD8E0DEBFCDBF7C
S11300C011E0A0E0B1E0E6ECFBE002C005900D9287
S11300D0AC3CB107D9F70E94E2000C94E1050C9402
S11300E000009091C10093FF07C0E0ECF0E0908124
S11300F095FFFDCF8093C6000895CF93DF93EC0165
S11301008881882331F021960E94710089918111A0
S1130110FBCFDF91CF910895E0ECF0E0808188235C
S1130120ECF78091C6000895EAE7F0E080818064EE
S11301308083808184FFFDCFEAE7F0E080818061E5
S1130140808380917800909179000895CF92DF9216
S1130150EF92FF92CF93C62F2EE6AC01249FC001ED
S1130160259F900D11246FEF73E00E94D50280E06B
S113017090E00E94DA01C437B9F026E636E646EE8E
S11301805FE3C62ED72EE82EF92EC701B6010E94D2
S1130190680220E030E040E052E40E946E01562FF5
S11301A0472F382F292F04C0562F472F382F292F98
S11301B0652F742F832F922FCF91FF90EF90DF90B4
S11301C0CF900895CF93DF93CDB7DEB7CD5CD1093F
S11301D00FB6F894DEBF0FBECDBF3C9884EC80937D
S11301E07C0010927A0087E880937B00519A86E025
S11301F08093C200E1ECF0E080818F6E80835098A0
S1130200808180618083229A2A98259A2D9888E09B
S11302109DE3909389008093880082E080936F002F
S1130220B19A78948DE080938100109280001092AE
S113023085001092840088ECE4E0F1E0DE01119680
S113024001900D928A95E1F7CE0101960E947D00FE
S11302500F2EF0E0CF2EF1E0DF2EF02D05E07E0131
S113026089ECE80EF11C0E948C00182F883629F4C2
S1130270CE0101960E947D00F6CF0E949400612F6A
S11302800E94A6009F938F937F936F93DF92CF92E8
S11302901F920F93FF92EF920E94E902C7010E94FE
S11302A07D008AE00E9471000FB6F894DEBF0FBE95
S11302B0CDBFD9CF1F920F920FB60F9211248F93F7
S11302C09F93B19A95B184E0892785B99F918F91C5
S11302D00F900FBE0F901F9018955058BB27AA2758
S11302E00E9485010C942E020E94200238F00E9484
S11302F0270220F039F49F3F19F426F40C941D02D0
S11303000EF4E095E7FB0C941702E92F0E943F02DC
S113031058F3BA17620773078407950720F079F436
S1130320A6F50C9461020EF4E0950B2EBA2FA02DC5
S11303300B01B90190010C01CA01A0011124FF278E
S1130340591B99F0593F50F4503E68F11A16F04089
S1130350A22F232F342F4427585FF3CF4695379588
S11303602795A795F0405395C9F77EF41F16BA0B4D
S1130370620B730B840BBAF09150A1F0FF0FBB1FFB
S1130380661F771F881FC2F70EC0BA0F621F731F44
S1130390841F48F4879577956795B795F7959E3FA1
S11303A008F0B0CF9395880F08F09927EE0F979532
S11303B087950895E89409C097FB3EF4909580953D
S11303C0709561957F4F8F4F9F4F9923A9F0F92F17
S11303D096E9BB279395F695879577956795B79595
S11303E0F111F8CFFAF4BB0F11F460FF1BC06F5F7B
S11303F07F4F8F4F9F4F16C0882311F096E911C08D
S1130400772321F09EE8872F762F05C0662371F0AD
S113041096E8862F70E060E02AF09A95660F771FC1
S1130420881FDAF7880F9695879597F9089597F9B5
S11304309F6780E870E060E008959FEF80EC089586
S113044000240A94161617061806090608950024AF
S11304500A9412161306140605060895092E039429
S1130460000C11F4882352F0BB0F40F4BF2B11F49D
S113047060FF04C06F5F7F4F8F4F9F4F089557FDFC
S11304809058440F551F59F05F3F71F04795880FFE
S113049097FB991F61F09F3F79F087950895121695
S11304A013061406551FF2CF4695F1DF08C0161641
S11304B017061806991FF1CF8695710561050894F2
S11304C00895E894BB2766277727CB0197F9089509
S11304D00E947B020C942E020E94200238F00E949B
S11304E0270220F0952311F00C9417020C941D029E
S11304F011240C9462020E943F0270F3959FC1F391
S1130500950F50E0551F629FF001729FBB27F00DBD
S1130510B11D639FAA27F00DB11DAA1F649F662712
S1130520B00DA11D661F829F2227B00DA11D621F61
S1130530739FB00DA11D621F839FA00D611D221F1B
S1130540749F3327A00D611D231F849F600D211DFF
S1130550822F762F6A2F11249F5750409AF0F1F082
S113056088234AF0EE0FFF1FBB1F661F771F881FEB
S113057091505040A9F79E3F510580F00C9417020A
S11305800C9462025F3FE4F3983ED4F3869577952A
S11305906795B795F795E7959F5FC1F7FE2B880F91
S11305A0911D9695879597F90895AA1BBB1B51E158
S11305B007C0AA1FBB1FA617B70710F0A61BB70BCF
S11305C0881F991F5A95A9F780959095BC01CD0174
S11305D00895AEE0B0E0EFEEF2E00C94B8050D89BA
S11305E01E898F89988D26E02C831A83098397FFAF
S11305F002C080E090E801979E838D83AE01455E42
S11306005F4F698D7A8DCE0101960E9419034D8149
S11306105E8157FD0AC02F813885421753070CF4B9
S11306209A01F801E20FF31F10822E96E4E00C9475
S1130630D405ABE0B0E0EFE1F3E00C94AA056C0163
S11306407B018A01FC0117821682838181FFCCC160
S1130650CE0101963C01F6019381F70193FD85914A
S113066093FF81917F01882309F4BAC1853239F45B
S113067093FD859193FF81917F01853229F4B60121
S113068090E00E941005E7CF912C212C312CFFE142
S1130690F315D8F08B3279F038F4803279F0833264
S11306A0A1F4232D20611DC08D3261F0803369F4E3
S11306B0232D216016C0832D8260382EE32DE46043
S11306C03E2E2AC0F32DF8601DC037FC2DC020ED4E
S11306D0280F2A3040F08E32B9F436FC81C1232D24
S11306E02064322E19C036FE06C08AE0989E200D82
S11306F01124922E11C0EAE02E9E200D1124222EE8
S1130700F32DF0623F2E08C08C3621F4832D8068CF
S1130710382E02C0883641F4F70193FD859193FF8A
S113072081917F018111B3CF982F9F7D9554933090
S113073028F40C5F1F4F9FE399830DC0833631F07B
S1130740833771F0833509F059C021C0F8018081E5
S113075089830E5F1F4F88248394912C530113C007
S11307602801F2E04F0E511CF801A080B18036FE42
S113077003C0692D70E002C06FEF7FEFC5010E94D6
S113078005054C018201F32DFF773F2E16C0280189
S113079022E0420E511CF801A080B18036FE03C055
S11307A0692D70E002C06FEF7FEFC5010E94FA046B
S11307B04C01F32DF0683F2E820133FC1BC0822DC7
S11307C090E088169906B0F4B60180E290E00E94A9
S11307D010052A94F4CFF50137FC859137FE8191F9
S11307E05F01B60190E00E94100521102A9421E0D7
S11307F0821A91088114910471F7E8C0843611F0CB
S1130800893641F5F80137FE07C060817181828124
S113081093810C5F1F4F08C060817181072E000C0B
S1130820880B990B0E5F1F4FF32DFF763F2E97FF1A
S113083009C090958095709561957F4F8F4F9F4F1C
S1130840F0683F2E2AE030E0A3010E944C05882E78
S1130850861845C0853731F4232D2F7EB22E2AE029
S113086030E025C0932D997FB92E8F36C1F018F44E
S1130870883579F0B5C0803719F0883721F0B0C0D9
S1130880E92FE061BE2EB4FE0DC0FB2DF460BF2E37
S113089009C034FE0AC0292F2660B22E06C028E003
S11308A030E005C020E130E002C020E132E0F80190
S11308B0B7FE07C060817181828193810C5F1F4FF5
S11308C006C06081718180E090E00E5F1F4FA3013C
S11308D00E944C05882E8618FB2DFF773F2E36FE8E
S11308E00DC0232D2E7FA22E891458F434FE0BC084
S11308F032FC09C0832D8E7EA82E05C0B82CA32CF3
S113090003C0B82C01C0B92CA4FE0FC0FE01E80D31
S1130910F11D8081803321F49A2D997EA92E09C07E
S1130920A2FE06C0B394B39404C08A2D867809F05D
S1130930B394A3FC11C0A0FE06C0B21488F4280C22
S1130940922C9B180EC0B21460F4B60180E290E0C1
S11309500E941005B394F7CFB21418F42B1802C0F8
S1130960982C212CA4FE10C0B60180E390E00E94D4
S11309701005A2FE17C0A1FC03C088E790E002C0E6
S113098088E590E0B6010CC08A2D867859F0A1FE66
S113099002C08BE201C080E2A7FC8DE2B60190E0C8
S11309A00E941005891438F4B60180E390E00E9497
S11309B010059A94F7CF8A94F301E80DF11D808114
S11309C0B60190E00E9410058110F5CF222009F4B1
S11309D042CEB60180E290E00E9410052A94F6CF40
S11309E0F6018681978102C08FEF9FEF2B96E2E19B
S11309F00C94C605FC010590615070400110D8F7B5
S1130A00809590958E0F9F1F0895FC016150704052
S1130A1001900110D8F7809590958E0F9F1F08952F
S1130A200F931F93CF93DF93FB01238121FD03C019
S1130A308FEF9FEF2CC022FF16C04681578124817F
S1130A4035814217530744F4A081B1819D012F5F82
S1130A503F4F318320838C93268137812F5F3F4F13
S1130A603783268314C08B01EC01FB010084F185DC
S1130A70E02D0995892BE1F6D80116968D919C916C
S1130A801797019617969C938E931697CE01DF9134
S1130A90CF911F910F910895FA01AA27283051F19F
S1130AA0203181F1E8946F936E7F6E5F7F4F8F4F9B
S1130AB09F4FAF4FB1E03ED0B4E03CD0670F781FFA
S1130AC0891F9A1FA11D680F791F8A1F911DA11DDF
S1130AD06A0F711D811D911DA11D20D009F4689418
S1130AE03F912AE0269F11243019305D3193DEF6C0
S1130AF0CF010895462F4770405D4193B3E00FD076
S1130B00C9F7F6CF462F4F70405D4A3318F0495D60
S1130B1031FD4052419302D0A9F7EACFB4E0A69543
S1130B209795879577956795BA95C9F70097610565
S1130B30710508959B01AC010A2E069457954795BB
S1130B4037952795BA95C9F7620F731F841F951FB0
S1130B50A01D08952F923F924F925F926F927F92C1
S1130B608F929F92AF92BF92CF92DF92EF92FF92B9
S1130B700F931F93CF93DF93CDB7DEB7CA1BDB0B65
S1130B800FB6F894DEBF0FBECDBF09942A8839880A
S1130B9048885F846E847D848C849B84AA84B98411
S1130BA0C884DF80EE80FD800C811B81AA81B9811D
S1130BB0CE0FD11D0FB6F894DEBF0FBECDBFED0131
S1090BC00895F894FFCF34
S1130BC625660A00683A2048656C7020736372656E
S1130BD6656E200A743A20446973706C61797320D7
S1130BE674656D706572617475726520696E2043F3
S1130BF6200A543A20446973706C617973207465D1
S1130C066D706572617475726520696E2046200A7E
S1130C166F3A205475726E73204F4E204C45442013
S1130C266F6E20504235200A4F3A205475726E7307
S1130C36204F4646204C4544206F6E2050423520B6
S1130C460A733A2053656E64732061207374726963
S1130C566E6720746F20746865207465726D696EA2
S1130C66616C200A693A2053656E647320616E20B4
S1130C76696E746567657220746F20746865207484
S10F0C8665726D696E616C200A200A0022
S9030000FC
