:100000000C945A000C9464000C9464000C946400EA
:100010000C9464000C9464000C9464000C946400D0
:100020000C9464000C9464000C9464000C946400C0
:100030000C9464000C9464000C9479000C9464009B
:100040000C9464000C9464000C9464000C946400A0
:100050000C9464000C9464000C9464000C94640090
:100060000C9464000C9464000C9464000C94640080
:100070000C9464000C9464000C9464000C94640070
:100080000C9464000C9464000C9464000C94640060
:100090000C9464000C9464000C9464000C94640050
:1000A0000C9464000C9464000C9464000C94640040
:1000B0000C94640011241FBECFEFD8E0DEBFCDBF8B
:1000C0000E9466000C949E000C940000259A2D9AC4
:1000D000399888B1827088B989EF87BD84B582600C
:1000E00084BD85B5856085BD82E080936E0078947F
:1000F000FFCF1F920F920FB60F9211242F938F9361
:100100009F9316BC319912C020E285B1822785B930
:100110008BE790E0A99BFECF16BCA99A0197D1F777
:1001200085B1822785B916BC319BEFCF9F918F9106
:100130002F910F900FBE0F901F901895F894FFCF3E
:00000001FF
