:100000000C945A000C946C000C946C000C946C00D2
:100010000C946C000C946C000C946C000C946C00B0
:100020000C946C000C946C000C946C000C946C00A0
:100030000C946C000C946C000C946C000C946C0090
:100040000C946C000C946C000C946C000C946C0080
:100050000C946C000C946C000C946C000C946C0070
:100060000C946C000C946C000C946C000C946C0060
:100070000C946C000C946C000C946C000C946C0050
:100080000C946C000C946C000C946C000C946C0040
:100090000C946C000C946C000C946C000C946C0030
:1000A0000C946C000C946C000C946C000C946C0020
:1000B0000C946C0011241FBECFEFD8E0DEBFCDBF83
:1000C00021E0A0E0B1E001C01D92A430B207E1F749
:1000D0000E94B8000C94A4020C940000FF920F93AD
:1000E0001F93CF93DF9310920001109201011092A1
:1000F0000201109203016894FF24F2F8CAE7D0E0ED
:1001000008E710E0888180648883888186FDFDCFC0
:10011000F8016081718180E090E00E94800120916F
:1001200000013091010140910201509103010E94B0
:100130000F0160930001709301018093020190937D
:100140000301FA94F110DECF20E030E040E85EE3F6
:100150000E943702609300017093010180930201B5
:1001600090930301DF91CF911F910F91FF9008951C
:10017000E0E8F0E08081826A8083E1E8F0E080815D
:100180008B61808387E893E190938700809386005A
:10019000219A80E480937C0085E880937A00C8E807
:1001A000D0E00F2EF1E6AF2EB12CF02D07E112E0DA
:1001B0000E946E00C0900001D0900101E090020109
:1001C000F090030120E030EC4FE754E4C701B601A2
:1001D0000E943202882364F0198308832FEF81EE96
:1001E00094E0215080409040E1F700C00000E0CF53
:1001F00020E030E040EA51E4C701B6010E947B01F3
:100200001816B4F2B982A8822FEF81EE94E0215043
:1002100080409040E1F700C00000CACF5058BB2793
:10022000AA270E9426010C94F8010E94EA0138F0E6
:100230000E94F10120F039F49F3F19F426F40C9448
:10024000E7010EF4E095E7FB0C94E101E92F0E9431
:10025000090258F3BA17620773078407950720F05D
:1002600079F4A6F50C942B020EF4E0950B2EBA2F20
:10027000A02D0B01B90190010C01CA01A0011124AC
:10028000FF27591B99F0593F50F4503E68F11A1658
:10029000F040A22F232F342F4427585FF3CF4695E9
:1002A00037952795A795F0405395C9F77EF41F160B
:1002B000BA0B620B730B840BBAF09150A1F0FF0FD5
:1002C000BB1F661F771F881FC2F70EC0BA0F621FC1
:1002D000731F841F48F4879577956795B795F795B1
:1002E0009E3F08F0B0CF9395880F08F09927EE0F46
:1002F0009795879508950E94BD0108F481E00895BF
:10030000E89409C097FB3EF49095809570956195AF
:100310007F4F8F4F9F4F9923A9F0F92F96E9BB2765
:100320009395F695879577956795B795F111F8CFE1
:10033000FAF4BB0F11F460FF1BC06F5F7F4F8F4F4C
:100340009F4F16C0882311F096E911C0772321F042
:100350009EE8872F762F05C0662371F096E8862FDA
:1003600070E060E02AF09A95660F771F881FDAF731
:10037000880F9695879597F90895990F0008550F5E
:10038000AA0BE0E8FEEF16161706E807F907C0F01B
:1003900012161306E407F50798F0621B730B840B23
:1003A000950B39F40A2661F0232B242B252B21F4FD
:1003B00008950A2609F4A140A6958FEF811D811D9D
:1003C000089597F99F6780E870E060E008959FEFD7
:1003D00080EC089500240A941616170618060906DC
:1003E000089500240A9412161306140605060895AB
:1003F000092E0394000C11F4882352F0BB0F40F433
:10040000BF2B11F460FF04C06F5F7F4F8F4F9F4F72
:10041000089557FD9058440F551F59F05F3F71F0F4
:100420004795880F97FB991F61F09F3F79F087955B
:100430000895121613061406551FF2CF4695F1DFE4
:1004400008C0161617061806991FF1CF8695710574
:10045000610508940895E894BB2766277727CB01A8
:1004600097F908950E94BD0108F48FEF08950E9446
:100470004A020C94F8010E94EA0138F00E94F1014E
:1004800020F0952311F00C94E1010C94E701112464
:100490000C942C020E94090270F3959FC1F3950FF2
:1004A00050E0551F629FF001729FBB27F00DB11DF8
:1004B000639FAA27F00DB11DAA1F649F6627B00D88
:1004C000A11D661F829F2227B00DA11D621F739F71
:1004D000B00DA11D621F839FA00D611D221F749F7F
:1004E0003327A00D611D231F849F600D211D822FC6
:1004F000762F6A2F11249F5750409AF0F1F08823ED
:100500004AF0EE0FFF1FBB1F661F771F881F915019
:100510005040A9F79E3F510580F00C94E1010C94E6
:100520002C025F3FE4F3983ED4F386957795679568
:10053000B795F795E7959F5FC1F7FE2B880F911D43
:0C0540009695879597F90895F894FFCFE1
:00000001FF
