:100000000C945A000C946F000C946F000C946F00C9
:100010000C946F000C946F000C946F000C946F00A4
:100020000C946F000C946F000C946F000C946F0094
:100030000C946F000C946F000C946F000C946F0084
:100040000C943C010C946F000C946F000C946F00A6
:100050000C946F000C946F000C946F000C946F0064
:100060000C946F000C946F000C946F000C946F0054
:100070000C946F000C946F000C946F000C946F0044
:100080000C946F000C946F000C946F000C946F0034
:100090000C946F000C946F000C946F000C946F0024
:1000A0000C946F000C946F000C946F000C946F0014
:1000B0000C946F0011241FBECFEFD8E0DEBFCDBF80
:1000C00011E0A0E0B1E0EEE6F6E002C005900D928E
:1000D000AA31B107D9F70E947B000C9435030C9428
:1000E000000088E08093C10086E08093C20087E62C
:1000F0008093C40008950E94710014BC85E085BD02
:1001000081E080936E0084E480937C0085E8809396
:100110007A000E9471007894FFCFE0ECF0E09081CB
:1001200095FFFDCF8093C6000895CF93DF93FC0128
:100130002081222369F0DC011196E0ECF0E0C6ECAE
:10014000D0E0908195FFFDCF28832D912111F9CF2B
:10015000DF91CF910895AF92BF92CF92DF92EF924D
:10016000FF920F931F93CF93DF93EAE7F0E0808134
:1001700080648083808184FFFDCFEAE7F0E08081A6
:10018000806180830F2EF8E7CF2ED12CF02DF60161
:10019000C0810F2EF9E7EF2EF12CF02DF7018081B1
:1001A000D0E0D82B80E091E00E94950004E610E0BA
:1001B000CE01B8010E940D035C0180E3860F0E940E
:1001C0008D00CAE0D0E0C501BE010E940D03B82E2B
:1001D00080E3860F0E948D0080E38B0D0E948D00CE
:1001E0008DE00E948D00F6016081F701808170E052
:1001F000782B072E000C880B990B0E94140220E02C
:1002000030E040E85AE30E94A00220E030E44CE9EC
:1002100055E40E94A00220E030E040E251E40E9458
:100220006A010E94DC017B018DE091E00E94950053
:10023000C701B8010E940D038C0180E3860F0E9464
:100240008D00C801BE010E940D03C82F80E3860FF8
:100250000E948D0080E38C0F0E948D008DE00E9433
:100260008D00DF91CF911F910F91FF90EF90DF9064
:10027000CF90BF90AF9008951F920F920FB60F923C
:1002800011242F933F934F935F936F937F938F939B
:100290009F93AF93BF93EF93FF932FE130E086B529
:1002A0008F3FE9F716BC21503109C9F70E94AB0016
:1002B00016BCFF91EF91BF91AF919F918F917F916C
:1002C0006F915F914F913F912F910F900FBE0F90C3
:1002D0001F9018950E947E010C9466020E945F0296
:1002E00058F00E94580240F029F45F3F29F00C9426
:1002F0004F0251110C949A020C9455020E947702FD
:1003000068F39923B1F3552391F3951B550BBB2744
:10031000AA2762177307840738F09F5F5F4F220F89
:10032000331F441FAA1FA9F335D00E2E3AF0E0E880
:1003300032D091505040E695001CCAF72BD0FE2FCA
:1003400029D0660F771F881FBB1F2617370748075E
:10035000AB07B0E809F0BB0B802DBF01FF27935816
:100360005F4F3AF09E3F510578F00C944F020C9489
:100370009A025F3FE4F3983ED4F3869577956795AC
:10038000B795F7959F5FC9F7880F911D969587954B
:1003900097F90895E1E0660F771F881FBB1F62176A
:1003A00073078407BA0720F0621B730B840BBA0B28
:1003B000EE1F88F7E09508950E94E3016894B1115B
:1003C0000C949A0208950E947F0288F09F5798F03B
:1003D000B92F9927B751B0F0E1F0660F771F881F4A
:1003E000991F1AF0BA95C9F714C0B13091F00E9464
:1003F0009902B1E008950C949902672F782F88270D
:10040000B85F39F0B93FCCF3869577956795B3958A
:10041000D9F73EF490958095709561957F4F8F4FF9
:100420009F4F0895E89409C097FB3EF490958095FE
:10043000709561957F4F8F4F9F4F9923A9F0F92FAA
:1004400096E9BB279395F695879577956795B79528
:10045000F111F8CFFAF4BB0F11F460FF1BC06F5F0E
:100460007F4F8F4F9F4F16C0882311F096E911C020
:10047000772321F09EE8872F762F05C0662371F041
:1004800096E8862F70E060E02AF09A95660F771F55
:10049000881FDAF7880F9695879597F9089597F949
:1004A0009F6780E870E060E008959FEF80EC08951A
:1004B00000240A9416161706180609060895002443
:1004C0000A9412161306140605060895092E0394BD
:1004D000000C11F4882352F0BB0F40F4BF2B11F431
:1004E00060FF04C06F5F7F4F8F4F9F4F089557FD90
:1004F0009058440F551F59F05F3F71F04795880F92
:1005000097FB991F61F09F3F79F087950895121628
:1005100013061406551FF2CF4695F1DF08C01616D4
:1005200017061806991FF1CF869571056105089485
:100530000895E894BB2766277727CB0197F908959C
:100540000E94B3020C9466020E94580238F00E9486
:100550005F0220F0952311F00C944F020C94550289
:1005600011240C949A020E94770270F3959FC1F3B4
:10057000950F50E0551F629FF001729FBB27F00D51
:10058000B11D639FAA27F00DB11DAA1F649F6627A6
:10059000B00DA11D661F829F2227B00DA11D621FF5
:1005A000739FB00DA11D621F839FA00D611D221FAF
:1005B000749F3327A00D611D231F849F600D211D93
:1005C000822F762F6A2F11249F5750409AF0F1F016
:1005D00088234AF0EE0FFF1FBB1F661F771F881F7F
:1005E00091505040A9F79E3F510580F00C944F0266
:1005F0000C949A025F3FE4F3983ED4F38695779586
:100600006795B795F795E7959F5FC1F7FE2B880F24
:10061000911D9695879597F9089597FB072E16F4E7
:10062000009407D077FD09D00E94210307FC05D074
:100630003EF4909581959F4F0895709561957F4FF9
:100640000895AA1BBB1B51E107C0AA1FBB1FA61719
:10065000B70710F0A61BB70B881F991F5A95A9F76B
:0E06600080959095BC01CD010895F894FFCFD0
:10066E0043656E746967726164653A200046617213
:0A067E00656E686569743A2000009B
:00000001FF
