:100000000C945A000C9464000C9464000C946400EA
:100010000C9464000C9464000C9464000C946400D0
:100020000C9464000C9464000C9464000C946400C0
:100030000C9464000C9464000C9464000C946400B0
:100040000C9464000C9464000C9464000C946400A0
:100050000C9464000C9464000C9464000C94640090
:100060000C9464000C9464000C9464000C94640080
:100070000C9464000C9464000C9464000C94640070
:100080000C9464000C9464000C9464000C94640060
:100090000C9464000C9464000C9464000C94640050
:1000A0000C9464000C9464000C9464000C94640040
:1000B0000C94640011241FBECFEFD8E0DEBFCDBF8B
:1000C0000E9466000C9485000C940000259A2D9ADD
:1000D000399888B1827088B914BC85E085BD16BC9A
:1000E00090E210C085B1892785B92BE730E086B54D
:1000F0008F3FE9F716BC21503109C9F785B189272F
:0E01000085B916BC3199FECFEDCFF894FFCF34
:00000001FF
