:100000000C945A000C9464000C9464000C946400EA
:100010000C94DD000C9464000C9464000C94640057
:100020000C9464000C9464000C9464000C946400C0
:100030000C9464000C9464000C9464000C946400B0
:100040000C9464000C9464000C9464000C946400A0
:100050000C9464000C9464000C9464000C94640090
:100060000C9464000C9464000C9464000C94640080
:100070000C9464000C9464000C9464000C94640070
:100080000C9464000C9464000C9464000C94640060
:100090000C9464000C9464000C9464000C94640050
:1000A0000C9464000C9464000C9464000C94640040
:1000B0000C94640011241FBECFEFD8E0DEBFCDBF8B
:1000C0000E9466000C94B9020C94000080E68093B4
:1000D0007C0085E880937A0087B1876F87B988B103
:1000E000896088B9569A82E08093680088E080939E
:1000F0006C00789484B5816884BD85B5816085BDC8
:1001000017BCCAE7D0E008E710E00F2EF2EFBF2ED1
:10011000F02D888180648883888186FDFDCFF80179
:100120006081718180E090E00E9495016B017C010B
:100130008FE39CE90197F1F700C0000020E032E373
:1001400043E757E4C701B6010E944702882344F001
:10015000B7BCEFE3FCE93197F1F700C00000D9CF5D
:1001600020E031E343E757E4C701B6010E94EF0006
:1001700018160CF120E030E0A901C701B6010E9479
:1001800047021816C4F420E031E343E757E4C701FF
:10019000B6010E94F40020E030E041E753E40E9401
:1001A0004C020E94660167BD8FE39CE90197F1F75D
:1001B00000C00000AECF17BCACCF1F920F920FB69D
:1001C0000F9211248F939F9398B181E0892788B96A
:1001D0009F918F910F900FBE0F901F9018950E94C6
:1001E000D20108F481E008950E9408010C940D02E8
:1001F0000E94060258F00E94FF0140F029F45F3F80
:1002000029F00C94F60151110C9441020C94FC015C
:100210000E941E0268F39923B1F3552391F3951BB5
:10022000550BBB27AA2762177307840738F09F5F17
:100230005F4F220F331F441FAA1FA9F335D00E2E84
:100240003AF0E0E832D091505040E695001CCAF7F1
:100250002BD0FE2F29D0660F771F881FBB1F2617B4
:1002600037074807AB07B0E809F0BB0B802DBF018B
:10027000FF2793585F4F3AF09E3F510578F00C945A
:10028000F6010C9441025F3FE4F3983ED4F3869567
:1002900077956795B795F7959F5FC9F7880F911D7B
:1002A0009695879597F90895E1E0660F771F881F67
:1002B000BB1F621773078407BA0720F0621B730B1A
:1002C000840BBA0BEE1F88F7E09508950E94260272
:1002D00088F09F5798F0B92F9927B751B0F0E1F007
:1002E000660F771F881F991F1AF0BA95C9F714C0B7
:1002F000B13091F00E944002B1E008950C944002A8
:10030000672F782F8827B85F39F0B93FCCF38695EF
:1003100077956795B395D9F73EF49095809570954C
:1003200061957F4F8F4F9F4F0895E89409C097FBC9
:100330003EF490958095709561957F4F8F4F9F4FBC
:100340009923A9F0F92F96E9BB279395F695879500
:1003500077956795B795F111F8CFFAF4BB0F11F4C3
:1003600060FF1BC06F5F7F4F8F4F9F4F16C088236A
:1003700011F096E911C0772321F09EE8872F762FA0
:1003800005C0662371F096E8862F70E060E02AF0E1
:100390009A95660F771F881FDAF7880F96958795CD
:1003A00097F90895990F0008550FAA0BE0E8FEEFA2
:1003B00016161706E807F907C0F012161306E40729
:1003C000F50798F0621B730B840B950B39F40A2622
:1003D00061F0232B242B252B21F408950A2609F400
:1003E000A140A6958FEF811D811D089597F99F6704
:1003F00080E870E060E008959FEF80EC08950024AD
:100400000A941616170618060906089500240A9479
:1004100012161306140605060895092E0394000CFF
:1004200011F4882352F0BB0F40F4BF2B11F460FF8E
:1004300004C06F5F7F4F8F4F9F4F089557FD9058B7
:10044000440F551F59F05F3F71F04795880F97FB98
:10045000991F61F09F3F79F0879508951216130652
:100460001406551FF2CF4695F1DF08C01616170681
:100470001806991FF1CF86957105610508940895B6
:10048000E894BB2766277727CB0197F908950E9448
:10049000D20108F48FEF08950E945F020C940D02C0
:1004A0000E94FF0138F00E94060220F0952311F00F
:1004B0000C94F6010C94FC0111240C9441020E944E
:1004C0001E0270F3959FC1F3950F50E0551F629F78
:1004D000F001729FBB27F00DB11D639FAA27F00D9D
:1004E000B11DAA1F649F6627B00DA11D661F829FC4
:1004F0002227B00DA11D621F739FB00DA11D621FA9
:10050000839FA00D611D221F749F3327A00D611DC5
:10051000231F849F600D211D822F762F6A2F1124A7
:100520009F5750409AF0F1F088234AF0EE0FFF1FDA
:10053000BB1F661F771F881F91505040A9F79E3F31
:10054000510580F00C94F6010C9441025F3FE4F3F6
:10055000983ED4F3869577956795B795F795E79587
:100560009F5FC1F7FE2B880F911D9695879597F990
:060570000895F894FFCF8E
:00000001FF
