S013000061737369676E6D656E74352E73726563A3
S11300000C945A000C9477000C9477000C947700AD
S11300100C9477000C9477000C9477000C94770080
S11300200C9477000C9477000C9477000C94770070
S11300300C9477000C9477000C9477000C94770060
S11300400C9477000C9477000C9477000C94770050
S11300500C9477000C9477000C9477000C94770040
S11300600C9477000C9477000C9477000C94770030
S11300700C9477000C9477000C9477000C94770020
S11300800C9477000C9477000C9477000C94770010
S11300900C9477000C9477000C9477000C94770000
S11300A00C9477000C9477000C9477000C947700F0
S11300B00C94770011241FBECFEFD8E0DEBFCDBF74
S11300C011E0A0E0B1E0EAEFF4E002C005900D9287
S11300D0AA30B107D9F721E0AAE0B1E001C01D922E
S11300E0AE30B207E1F70E940E010C947B020C942F
S11300F00000ECE7F0E0808184648083EAE7F0E0CC
S113010080818768808317B818B8089510920A010F
S113011010920B0110920C0110920D01EAE7F0E02D
S1130120808180648083808186FDFDCF609178002A
S11301307091790080E090E00E94580160930A0178
S113014070930B0180930C0190930D0160910A014F
S113015070910B0180910C0190910D0120E030E031
S113016040E85AE30E94BE0120E030E04AEF53E445
S11301700E94BE0160930A0170930B0180930C01ED
S113018090930D010895209A8AB180698AB90895DF
S113019027E030E090E0AC01022E02C0559547956F
S11301A00A94E2F740FD03C045B115B801C0289A8E
S11301B05F9A4BB11BB82150310968F70895CF936A
S11301C0DF93EC012AE030E0B9010E945302CB0135
S11301D0B9010E945302CA30D10564F02BB11BB897
S11301E0FC01E050FF4F80810E94C80084EF0E9410
S11301F0C8005C9A8BB11BB8CE016AE070E00E9423
S11302005302FC01E050FF4F80810E94C80088EF38
S11302100E94C8005C9ADF91CF9108950E947900F2
S11302200E94C3000E94860060910A0170910B0134
S113023080910C0190910D010E942201CB010E943A
S1130240DF00F0CF0E9429016894B1110C94B80129
S113025008950E949D0188F09F5798F0B92F99271F
S1130260B751B0F0E1F0660F771F881F991F1AF09D
S1130270BA95C9F714C0B13091F00E94B701B1E04A
S113028008950C94B701672F782F8827B85F39F049
S1130290B93FCCF3869577956795B395D9F73EF436
S11302A090958095709561957F4F8F4F9F4F0895DE
S11302B0E89409C097FB3EF49095809570956195FC
S11302C07F4F8F4F9F4F9923A9F0F92F96E9BB27B2
S11302D09395F695879577956795B795F111F8CF2E
S11302E0FAF4BB0F11F460FF1BC06F5F7F4F8F4F99
S11302F09F4F16C0882311F096E911C0772321F08F
S11303009EE8872F762F05C0662371F096E8862F26
S113031070E060E02AF09A95660F771F881FDAF77D
S1130320880F9695879597F9089557FD9058440F2F
S1130330551F59F05F3F71F04795880F97FB991F40
S113034061F09F3F79F087950895121613061406FD
S1130350551FF2CF4695F1DF08C01616170618068A
S1130360991FF1CF86957105610508940895E89465
S1130370BB2766277727CB0197F908950E94D101FF
S11303800C9442020E94340238F00E943B0220F096
S1130390952311F00C942B020C94310211240C942B
S11303A0B8010E94950170F3959FC1F3950F50E039
S11303B0551F629FF001729FBB27F00DB11D639F13
S11303C0AA27F00DB11DAA1F649F6627B00DA11DB9
S11303D0661F829F2227B00DA11D621F739FB00D5F
S11303E0A11D621F839FA00D611D221F749F3327CF
S11303F0A00D611D231F849F600D211D822F762F68
S11304006A2F11249F5750409AF0F1F088234AF044
S1130410EE0FFF1FBB1F661F771F881F91505040B0
S1130420A9F79E3F510580F00C942B020C94B8015F
S11304305F3FE4F3983ED4F3869577956795B79537
S1130440F795E7959F5FC1F7FE2B880F911D969551
S1130450879597F9089597F99F6780E870E060E0C1
S113046008959FEF80EC089500240A941616170649
S113047018060906089500240A9412161306140691
S113048005060895092E0394000C11F4882352F0F4
S1130490BB0F40F4BF2B11F460FF04C06F5F7F4FAC
S11304A08F4F9F4F089597FB072E16F4009407D0A3
S11304B077FD09D00E94670207FC05D03EF49095B1
S11304C081959F4F0895709561957F4F0895AA1B5C
S11304D0BB1B51E107C0AA1FBB1FA617B70710F02B
S11304E0A61BB70B881F991F5A95A9F7809590955D
S10D04F0BC01CD010895F894FFCF7C
S10D04FAC0F9A4B0999282F8809032
S9030000FC
