S015000061737369676E6D656E74355F322E7372656310
S11300000C945A000C9477000C9477000C947700AD
S11300100C9477000C9477000C9477000C94770080
S11300200C9477000C9477000C9477000C94770070
S11300300C9477000C9477000C9477000C94770060
S11300400C9477000C9477000C9477000C94770050
S11300500C9477000C9477000C9477000C94770040
S11300600C9477000C9477000C9477000C94770030
S11300700C9477000C9477000C9477000C94770020
S11300800C9477000C9477000C9477000C94770010
S11300900C9477000C9477000C9477000C94770000
S11300A00C9477000C9477000C9477000C947700F0
S11300B00C94770011241FBECFEFD8E0DEBFCDBF74
S11300C011E0A0E0B1E0E4E0F5E002C005900D929B
S11300D0AA30B107D9F721E0AAE0B1E001C01D922E
S11300E0AE30B207E1F70E9413010C9480020C9425
S11300F0000084B18C6284B985B1837D85B980E5C3
S11301008CBD2A9808958EBD0DB407FEFDCF6EBD3B
S11301100DB407FEFDCF2A9A2A980895CF92DF9254
S1130120EF92FF920F931F93CF93DF937C012AE00A
S113013030E0B9010E9458028C01CB01B9010E9440
S11301405802C1E0D0E000501F4F9C0120503F4FA7
S1130150690101C02196C130D10551F43AE0E3169A
S1130160F10434F064EFF60180810E948300F2CF41
S113017068EFF80180810E948300C230D10554F3F6
S1130180DF91CF911F910F91FF90EF90DF90CF906F
S11301900895ECE7F0E0808184648083EAE7F0E08E
S11301A080818768808317B818B8089510920A016F
S11301B010920B0110920C0110920D01EAE7F0E08D
S11301C0808180648083808186FDFDCF609178008A
S11301D07091790080E090E00E945D0160930A01D3
S11301E070930B0180930C0190930D0160910A01AF
S11301F070910B0180910C0190910D0120E030E091
S113020040E85AE30E94C30120E030E04AEF53E49F
S11302100E94C30160930A0170930B0180930C0147
S113022090930D0108950E9479000E94C9000E94D4
S1130230D60060910A0170910B0180910C0190919C
S11302400D010E942701CB010E948E00F0CF0E9475
S11302502E016894B1110C94BD0108950E94A2016D
S113026088F09F5798F0B92F9927B751B0F0E1F073
S1130270660F771F881F991F1AF0BA95C9F714C023
S1130280B13091F00E94BC01B1E008950C94BC011E
S1130290672F782F8827B85F39F0B93FCCF386955C
S11302A077956795B395D9F73EF4909580957095B9
S11302B061957F4F8F4F9F4F0895E89409C097FB36
S11302C03EF490958095709561957F4F8F4F9F4F29
S11302D09923A9F0F92F96E9BB279395F69587956D
S11302E077956795B795F111F8CFFAF4BB0F11F430
S11302F060FF1BC06F5F7F4F8F4F9F4F16C08823D7
S113030011F096E911C0772321F09EE8872F762F0C
S113031005C0662371F096E8862F70E060E02AF04D
S11303209A95660F771F881FDAF7880F9695879539
S113033097F9089557FD9058440F551F59F05F3FA2
S113034071F04795880F97FB991F61F09F3F79F0F3
S113035087950895121613061406551FF2CF469575
S1130360F1DF08C0161617061806991FF1CF8695F7
S11303707105610508940895E894BB2766277727DB
S1130380CB0197F908950E94D6010C9447020E946C
S1130390390238F00E94400220F0952311F00C94A9
S11303A030020C94360211240C94BD010E949A016F
S11303B070F3959FC1F3950F50E0551F629FF001B4
S11303C0729FBB27F00DB11D639FAA27F00DB11DCD
S11303D0AA1F649F6627B00DA11D661F829F222756
S11303E0B00DA11D621F739FB00DA11D621F839FDD
S11303F0A00D611D221F749F3327A00D611D231FB3
S1130400849F600D211D822F762F6A2F11249F5700
S113041050409AF0F1F088234AF0EE0FFF1FBB1F03
S1130420661F771F881F91505040A9F79E3F5105C2
S113043080F00C9430020C94BD015F3FE4F3983ECD
S1130440D4F3869577956795B795F795E7959F5F6C
S1130450C1F7FE2B880F911D9695879597F90895FE
S113046097F99F6780E870E060E008959FEF80EC63
S1130470089500240A941616170618060906089506
S113048000240A9412161306140605060895092E6C
S11304900394000C11F4882352F0BB0F40F4BF2BDB
S11304A011F460FF04C06F5F7F4F8F4F9F4F08951B
S11304B097FB072E16F4009407D077FD09D00E940D
S11304C06C0207FC05D03EF4909581959F4F0895EA
S11304D0709561957F4F0895AA1BBB1B51E107C01E
S11304E0AA1FBB1FA617B70710F0A61BB70B881FC0
S11304F0991F5A95A9F780959095BC01CD0108954F
S1070500F894FFCF99
S10D0504C0F9A4B0999282F8809027
S9030000FC
