:100000000C945A000C946C000C946C000C946C00D2
:100010000C946C000C946C000C946C000C946C00B0
:100020000C946C000C946C000C946C000C946C00A0
:100030000C946C000C946C000C946C000C946C0090
:100040000C946C000C946C000C946C000C946C0080
:100050000C946C000C946C000C946C000C946C0070
:100060000C946C000C946C000C946C000C946C0060
:100070000C946C000C946C000C946C000C946C0050
:100080000C946C000C946C000C946C000C946C0040
:100090000C946C000C946C000C946C000C946C0030
:1000A0000C946C000C946C000C946C000C946C0020
:1000B0000C946C0011241FBECFEFD8E0DEBFCDBF83
:1000C00021E0A0E0B1E001C01D92A430B207E1F749
:1000D0000E94CA000C94EE020C940000BF92CF92D2
:1000E000DF92EF92FF920F931F93CF93DF931092C3
:1000F0000001109201011092020110920301689414
:10010000BB24B2F8CAE7D0E008E710E08881806439
:100110008883888186FDFDCFF80160817181C09060
:100120000001D0900101E0900201F090030180E015
:1001300090E00E94CA01A70196010E945E016093AF
:100140000001709301018093020190930301BA941E
:10015000B110DCCF6091000170910101809102012A
:100160009091030120E030E040E85EE30E945D02F0
:100170006093000170930101809302019093030149
:10018000DF91CF911F910F91FF90EF90DF90CF9073
:10019000BF9008958FE08AB987B18E6F87B9E1E883
:1001A000F0E080818B60808380E480937C0085E830
:1001B00080937A00C8E8D0E00F2EFBE4AF2EFDE17B
:1001C000BF2EF02D0F2EF7E8CF2EF3E1DF2EF02D0E
:1001D0000F2EF3ECEF2EF9E0FF2EF02D0FE017E2DB
:1001E0000F2EFAE06F2EF02D0F2EF6E07F2EF02D61
:1001F0000F2EF5E08F2EF02D0F2EF9E09F2EF02D13
:100200000E946E00609100017091010180910201D5
:100210009091030120E030E040E454E40E94580251
:1002200088231CF01983088337C060910001709106
:100230000101809102019091030120E030E040E053
:1002400054E40E94580288231CF0F982E88224C0FA
:100250006091000170910101809102019091030170
:1002600020E030E040E853E40E94580288231CF06C
:10027000D982C88211C06091000170910101809102
:1002800002019091030120E030E0A9010E94580290
:10029000882314F0B982A8826BB8B19AB19BFECFC3
:1002A00075B8B19AB19BFECF8BB8B19AB19BFECF16
:1002B0009BB8B19AB19BFECFA3CF5058BB27AA27BA
:1002C0000E9475010C941E020E94100238F00E94D8
:1002D000170220F039F49F3F19F426F40C940D0214
:1002E0000EF4E095E7FB0C940702E92F0E942F0221
:1002F00058F3BA17620773078407950720F079F45B
:10030000A6F50C9451020EF4E0950B2EBA2FA02DF9
:100310000B01B90190010C01CA01A0011124FF27B2
:10032000591B99F0593F50F4503E68F11A16F040AD
:10033000A22F232F342F4427585FF3CF46953795AC
:100340002795A795F0405395C9F77EF41F16BA0B71
:10035000620B730B840BBAF09150A1F0FF0FBB1F1F
:10036000661F771F881FC2F70EC0BA0F621F731F68
:10037000841F48F4879577956795B795F7959E3FC5
:1003800008F0B0CF9395880F08F09927EE0F979556
:1003900087950895E89409C097FB3EF49095809561
:1003A000709561957F4F8F4F9F4F9923A9F0F92F3B
:1003B00096E9BB279395F695879577956795B795B9
:1003C000F111F8CFFAF4BB0F11F460FF1BC06F5F9F
:1003D0007F4F8F4F9F4F16C0882311F096E911C0B1
:1003E000772321F09EE8872F762F05C0662371F0D2
:1003F00096E8862F70E060E02AF09A95660F771FE6
:10040000881FDAF7880F9695879597F9089597F9D9
:100410009F6780E870E060E008959FEF80EC0895AA
:1004200000240A94161617061806090608950024D3
:100430000A9412161306140605060895092E03944D
:10044000000C11F4882352F0BB0F40F4BF2B11F4C1
:1004500060FF04C06F5F7F4F8F4F9F4F089557FD20
:100460009058440F551F59F05F3F71F04795880F22
:1004700097FB991F61F09F3F79F0879508951216B9
:1004800013061406551FF2CF4695F1DF08C0161665
:1004900017061806991FF1CF869571056105089416
:1004A0000895E894BB2766277727CB0197F908952D
:1004B0000E94CA0208F48FEF08950E9470020C9403
:1004C0001E020E94100238F00E94170220F09523AD
:1004D00011F00C9407020C940D0211240C9452029A
:1004E0000E942F0270F3959FC1F3950F50E0551FA6
:1004F000629FF001729FBB27F00DB11D639FAA2779
:10050000F00DB11DAA1F649F6627B00DA11D661FC7
:10051000829F2227B00DA11D621F739FB00DA11DE8
:10052000621F839FA00D611D221F749F3327A00DA2
:10053000611D231F849F600D211D822F762F6A2F3E
:1005400011249F5750409AF0F1F088234AF0EE0FA3
:10055000FF1FBB1F661F771F881F91505040A9F7D0
:100560009E3F510580F00C9407020C9452025F3FAD
:10057000E4F3983ED4F3869577956795B795F7950C
:10058000E7959F5FC1F7FE2B880F911D9695879584
:1005900097F90895990F0008550FAA0BE0E8FEEFB0
:1005A00016161706E807F907C0F012161306E40737
:1005B000F50798F0621B730B840B950B39F40A2630
:1005C00061F0232B242B252B21F408950A2609F40E
:1005D000A140A6958FEF811D811D0895F894FFCF4E
:00000001FF
